{
  "_format": "hh-sol-artifact-1",
  "contractName": "MessageVoting",
  "sourceName": "src/MessageVoting.sol",
  "abi": [
    {
      "inputs": [
        {
          "internalType": "uint256",
          "name": "_messageIndex",
          "type": "uint256"
        }
      ],
      "name": "downvote",
      "outputs": [],
      "stateMutability": "nonpayable",
      "type": "function"
    },
    {
      "inputs": [],
      "name": "getMessagesByVotes",
      "outputs": [
        {
          "components": [
            {
              "internalType": "string",
              "name": "content",
              "type": "string"
            },
            {
              "internalType": "uint256",
              "name": "votes",
              "type": "uint256"
            }
          ],
          "internalType": "struct MessageVoting.Message[]",
          "name": "",
          "type": "tuple[]"
        }
      ],
      "stateMutability": "view",
      "type": "function"
    },
    {
      "inputs": [
        {
          "internalType": "uint256",
          "name": "",
          "type": "uint256"
        }
      ],
      "name": "messages",
      "outputs": [
        {
          "internalType": "string",
          "name": "content",
          "type": "string"
        },
        {
          "internalType": "uint256",
          "name": "votes",
          "type": "uint256"
        }
      ],
      "stateMutability": "view",
      "type": "function"
    },
    {
      "inputs": [
        {
          "internalType": "string",
          "name": "_content",
          "type": "string"
        }
      ],
      "name": "postMessage",
      "outputs": [],
      "stateMutability": "nonpayable",
      "type": "function"
    },
    {
      "inputs": [
        {
          "internalType": "uint256",
          "name": "_messageIndex",
          "type": "uint256"
        }
      ],
      "name": "upvote",
      "outputs": [],
      "stateMutability": "nonpayable",
      "type": "function"
    }
  ],
  "bytecode": "0x608060405234801561001057600080fd5b50610f03806100206000396000f3fe608060405234801561001057600080fd5b50600436106100675760003560e01c80636630f88f116100505780636630f88f146100b95780638b919a17146100d5578063f31fdad4146100f357610067565b806301ddf0701461006c5780630d80fefd14610088575b600080fd5b61008660048036038101906100819190610658565b61010f565b005b6100a2600480360381019061009d9190610658565b610194565b6040516100b0929190610724565b60405180910390f35b6100d360048036038101906100ce9190610889565b610250565b005b6100dd6102bc565b6040516100ea9190610a2a565b60405180910390f35b61010d60048036038101906101089190610658565b61056f565b005b6000805490508110610156576040517f08c379a000000000000000000000000000000000000000000000000000000000815260040161014d90610a98565b60405180910390fd5b6000818154811061016a57610169610ab8565b5b9060005260206000209060020201600101600081548092919061018c90610b16565b919050555050565b600081815481106101a457600080fd5b90600052602060002090600202016000915090508060000180546101c790610b8d565b80601f01602080910402602001604051908101604052809291908181526020018280546101f390610b8d565b80156102405780601f1061021557610100808354040283529160200191610240565b820191906000526020600020905b81548152906001019060200180831161022357829003601f168201915b5050505050908060010154905082565b6000604051806040016040528083815260200160008152509050600081908060018154018082558091505060019003906000526020600020906002020160009091909190915060008201518160000190816102ab9190610d6a565b506020820151816001015550505050565b606060008080549050905060008167ffffffffffffffff8111156102e3576102e261075e565b5b60405190808252806020026020018201604052801561031c57816020015b6103096105f4565b8152602001906001900390816103015790505b50905060005b82811015610424576000818154811061033e5761033d610ab8565b5b906000526020600020906002020160405180604001604052908160008201805461036790610b8d565b80601f016020809104026020016040519081016040528092919081815260200182805461039390610b8d565b80156103e05780601f106103b5576101008083540402835291602001916103e0565b820191906000526020600020905b8154815290600101906020018083116103c357829003601f168201915b5050505050815260200160018201548152505082828151811061040657610405610ab8565b5b6020026020010181905250808061041c90610b16565b915050610322565b5060005b6001836104359190610e3c565b8110156105665760005b6001828561044d9190610e3c565b6104579190610e3c565b811015610552578260018261046c9190610e70565b8151811061047d5761047c610ab8565b5b60200260200101516020015183828151811061049c5761049b610ab8565b5b602002602001015160200151101561053f5760008382815181106104c3576104c2610ab8565b5b60200260200101519050836001836104db9190610e70565b815181106104ec576104eb610ab8565b5b602002602001015184838151811061050757610506610ab8565b5b602002602001018190525080846001846105219190610e70565b8151811061053257610531610ab8565b5b6020026020010181905250505b808061054a90610b16565b91505061043f565b50808061055e90610b16565b915050610428565b50809250505090565b60008054905081106105b6576040517f08c379a00000000000000000000000000000000000000000000000000000000081526004016105ad90610a98565b60405180910390fd5b600081815481106105ca576105c9610ab8565b5b906000526020600020906002020160010160008154809291906105ec90610ea4565b919050555050565b604051806040016040528060608152602001600081525090565b6000604051905090565b600080fd5b600080fd5b6000819050919050565b61063581610622565b811461064057600080fd5b50565b6000813590506106528161062c565b92915050565b60006020828403121561066e5761066d610618565b5b600061067c84828501610643565b91505092915050565b600081519050919050565b600082825260208201905092915050565b60005b838110156106bf5780820151818401526020810190506106a4565b60008484015250505050565b6000601f19601f8301169050919050565b60006106e782610685565b6106f18185610690565b93506107018185602086016106a1565b61070a816106cb565b840191505092915050565b61071e81610622565b82525050565b6000604082019050818103600083015261073e81856106dc565b905061074d6020830184610715565b9392505050565b600080fd5b600080fd5b7f4e487b7100000000000000000000000000000000000000000000000000000000600052604160045260246000fd5b610796826106cb565b810181811067ffffffffffffffff821117156107b5576107b461075e565b5b80604052505050565b60006107c861060e565b90506107d4828261078d565b919050565b600067ffffffffffffffff8211156107f4576107f361075e565b5b6107fd826106cb565b9050602081019050919050565b82818337600083830152505050565b600061082c610827846107d9565b6107be565b90508281526020810184848401111561084857610847610759565b5b61085384828561080a565b509392505050565b600082601f8301126108705761086f610754565b5b8135610880848260208601610819565b91505092915050565b60006020828403121561089f5761089e610618565b5b600082013567ffffffffffffffff8111156108bd576108bc61061d565b5b6108c98482850161085b565b91505092915050565b600081519050919050565b600082825260208201905092915050565b6000819050602082019050919050565b600082825260208201905092915050565b600061091a82610685565b61092481856108fe565b93506109348185602086016106a1565b61093d816106cb565b840191505092915050565b61095181610622565b82525050565b60006040830160008301518482036000860152610974828261090f565b91505060208301516109896020860182610948565b508091505092915050565b60006109a08383610957565b905092915050565b6000602082019050919050565b60006109c0826108d2565b6109ca81856108dd565b9350836020820285016109dc856108ee565b8060005b85811015610a1857848403895281516109f98582610994565b9450610a04836109a8565b925060208a019950506001810190506109e0565b50829750879550505050505092915050565b60006020820190508181036000830152610a4481846109b5565b905092915050565b7f496e76616c6964206d65737361676520696e6465780000000000000000000000600082015250565b6000610a82601583610690565b9150610a8d82610a4c565b602082019050919050565b60006020820190508181036000830152610ab181610a75565b9050919050565b7f4e487b7100000000000000000000000000000000000000000000000000000000600052603260045260246000fd5b7f4e487b7100000000000000000000000000000000000000000000000000000000600052601160045260246000fd5b6000610b2182610622565b91507fffffffffffffffffffffffffffffffffffffffffffffffffffffffffffffffff8203610b5357610b52610ae7565b5b600182019050919050565b7f4e487b7100000000000000000000000000000000000000000000000000000000600052602260045260246000fd5b60006002820490506001821680610ba557607f821691505b602082108103610bb857610bb7610b5e565b5b50919050565b60008190508160005260206000209050919050565b60006020601f8301049050919050565b600082821b905092915050565b600060088302610c207fffffffffffffffffffffffffffffffffffffffffffffffffffffffffffffffff82610be3565b610c2a8683610be3565b95508019841693508086168417925050509392505050565b6000819050919050565b6000610c67610c62610c5d84610622565b610c42565b610622565b9050919050565b6000819050919050565b610c8183610c4c565b610c95610c8d82610c6e565b848454610bf0565b825550505050565b600090565b610caa610c9d565b610cb5818484610c78565b505050565b5b81811015610cd957610cce600082610ca2565b600181019050610cbb565b5050565b601f821115610d1e57610cef81610bbe565b610cf884610bd3565b81016020851015610d07578190505b610d1b610d1385610bd3565b830182610cba565b50505b505050565b600082821c905092915050565b6000610d4160001984600802610d23565b1980831691505092915050565b6000610d5a8383610d30565b9150826002028217905092915050565b610d7382610685565b67ffffffffffffffff811115610d8c57610d8b61075e565b5b610d968254610b8d565b610da1828285610cdd565b600060209050601f831160018114610dd45760008415610dc2578287015190505b610dcc8582610d4e565b865550610e34565b601f198416610de286610bbe565b60005b82811015610e0a57848901518255600182019150602085019450602081019050610de5565b86831015610e275784890151610e23601f891682610d30565b8355505b6001600288020188555050505b505050505050565b6000610e4782610622565b9150610e5283610622565b9250828203905081811115610e6a57610e69610ae7565b5b92915050565b6000610e7b82610622565b9150610e8683610622565b9250828201905080821115610e9e57610e9d610ae7565b5b92915050565b6000610eaf82610622565b915060008203610ec257610ec1610ae7565b5b60018203905091905056fea264697066735822122081dd69c3d21953fe88e33f5d31c5eaf52fc4e04a9ba037b39004bb6e0b414bf864736f6c63430008120033",
  "linkReferences": {},
  "deployedLinkReferences": {}
}