{
  "_format": "hh-sol-artifact-1",
  "contractName": "MessageVoting",
  "sourceName": "src/MessageVoting.sol",
  "abi": [
    {
      "inputs": [
        {
          "internalType": "bytes32",
          "name": "_messageId",
          "type": "string"
        },
        {
          "internalType": "int256",
          "name": "_voteCount",
          "type": "int256"
        }
      ],
      "name": "downvote",
      "outputs": [],
      "stateMutability": "nonpayable",
      "type": "function"
    },
    {
      "inputs": [
        {
          "internalType": "bytes32",
          "name": "_messageId",
          "type": "bytes32"
        }
      ],
      "name": "getMessageById",
      "outputs": [
        {
          "internalType": "int256",
          "name": "",
          "type": "int256"
        }
      ],
      "stateMutability": "view",
      "type": "function"
    },
    {
      "inputs": [
        {
          "internalType": "string",
          "name": "_messageId",
          "type": "string"
        },
        {
          "internalType": "int256",
          "name": "_voteCount",
          "type": "int256"
        }
      ],
      "name": "upvote",
      "outputs": [],
      "stateMutability": "nonpayable",
      "type": "function"
    },
    {
      "inputs": [
        {
          "internalType": "string",
          "name": "",
          "type": "string"
        }
      ],
      "name": "voteCount",
      "outputs": [
        {
          "internalType": "int256",
          "name": "",
          "type": "int256"
        }
      ],
      "stateMutability": "view",
      "type": "function"
    }
  ],
  "bytecode": "0x608060405234801561001057600080fd5b50610583806100206000396000f3fe608060405234801561001057600080fd5b506004361061004c5760003560e01c80639bde1a0214610051578063ba7f755214610081578063bd2f4bd6146100b1578063f2361d7e146100cd575b600080fd5b61006b6004803603810190610066919061030a565b6100e9565b604051610078919061036c565b60405180910390f35b61009b6004803603810190610096919061030a565b610110565b6040516100a8919061036c565b60405180910390f35b6100cb60048036038101906100c691906103b3565b61013e565b005b6100e760048036038101906100e291906103b3565b610177565b005b600080826040516100fa9190610480565b9081526020016040518091039020549050919050565b6000818051602081018201805184825260208301602085012081835280955050505050506000915090505481565b8060008360405161014f9190610480565b9081526020016040518091039020600082825461016c91906104c6565b925050819055505050565b806000836040516101889190610480565b908152602001604051809103902060008282546101a59190610509565b925050819055505050565b6000604051905090565b600080fd5b600080fd5b600080fd5b600080fd5b6000601f19601f8301169050919050565b7f4e487b7100000000000000000000000000000000000000000000000000000000600052604160045260246000fd5b610217826101ce565b810181811067ffffffffffffffff82111715610236576102356101df565b5b80604052505050565b60006102496101b0565b9050610255828261020e565b919050565b600067ffffffffffffffff821115610275576102746101df565b5b61027e826101ce565b9050602081019050919050565b82818337600083830152505050565b60006102ad6102a88461025a565b61023f565b9050828152602081018484840111156102c9576102c86101c9565b5b6102d484828561028b565b509392505050565b600082601f8301126102f1576102f06101c4565b5b813561030184826020860161029a565b91505092915050565b6000602082840312156103205761031f6101ba565b5b600082013567ffffffffffffffff81111561033e5761033d6101bf565b5b61034a848285016102dc565b91505092915050565b6000819050919050565b61036681610353565b82525050565b6000602082019050610381600083018461035d565b92915050565b61039081610353565b811461039b57600080fd5b50565b6000813590506103ad81610387565b92915050565b600080604083850312156103ca576103c96101ba565b5b600083013567ffffffffffffffff8111156103e8576103e76101bf565b5b6103f4858286016102dc565b92505060206104058582860161039e565b9150509250929050565b600081519050919050565b600081905092915050565b60005b83811015610443578082015181840152602081019050610428565b60008484015250505050565b600061045a8261040f565b610464818561041a565b9350610474818560208601610425565b80840191505092915050565b600061048c828461044f565b915081905092915050565b7f4e487b7100000000000000000000000000000000000000000000000000000000600052601160045260246000fd5b60006104d182610353565b91506104dc83610353565b925082820390508181126000841216828213600085121516171561050357610502610497565b5b92915050565b600061051482610353565b915061051f83610353565b92508282019050828112156000831216838212600084121516171561054757610546610497565b5b9291505056fea2646970667358221220e891aeacc9647342b475cfcc66dc6130c649db8ffeb9b8722d0a319799841f6764736f6c63430008120033",
  "linkReferences": {},
  "deployedLinkReferences": {}
}