{
  "_format": "hh-sol-artifact-1",
  "contractName": "MessageVoting",
  "sourceName": "src/MessageVoting.sol",
  "abi": [
    {
      "inputs": [
        {
          "internalType": "string",
          "name": "_messageId",
          "type": "string"
        }
      ],
      "name": "downvote",
      "outputs": [],
      "stateMutability": "nonpayable",
      "type": "function"
    },
    {
      "inputs": [
        {
          "internalType": "string",
          "name": "_messageId",
          "type": "string"
        }
      ],
      "name": "getMessageById",
      "outputs": [
        {
          "components": [
            {
              "internalType": "string",
              "name": "content",
              "type": "string"
            },
            {
              "internalType": "int256",
              "name": "votes",
              "type": "int256"
            },
            {
              "internalType": "string",
              "name": "messageId",
              "type": "string"
            }
          ],
          "internalType": "struct MessageVoting.Message",
          "name": "",
          "type": "tuple"
        }
      ],
      "stateMutability": "view",
      "type": "function"
    },
    {
      "inputs": [],
      "name": "getSortedMessagesByVotes",
      "outputs": [
        {
          "components": [
            {
              "internalType": "string",
              "name": "content",
              "type": "string"
            },
            {
              "internalType": "int256",
              "name": "votes",
              "type": "int256"
            },
            {
              "internalType": "string",
              "name": "messageId",
              "type": "string"
            }
          ],
          "internalType": "struct MessageVoting.Message[]",
          "name": "",
          "type": "tuple[]"
        }
      ],
      "stateMutability": "view",
      "type": "function"
    },
    {
      "inputs": [
        {
          "internalType": "uint256",
          "name": "",
          "type": "uint256"
        }
      ],
      "name": "messages",
      "outputs": [
        {
          "internalType": "string",
          "name": "content",
          "type": "string"
        },
        {
          "internalType": "int256",
          "name": "votes",
          "type": "int256"
        },
        {
          "internalType": "string",
          "name": "messageId",
          "type": "string"
        }
      ],
      "stateMutability": "view",
      "type": "function"
    },
    {
      "inputs": [
        {
          "internalType": "string",
          "name": "_content",
          "type": "string"
        },
        {
          "internalType": "string",
          "name": "_messageId",
          "type": "string"
        }
      ],
      "name": "postMessage",
      "outputs": [],
      "stateMutability": "nonpayable",
      "type": "function"
    },
    {
      "inputs": [
        {
          "internalType": "string",
          "name": "_messageId",
          "type": "string"
        }
      ],
      "name": "upvote",
      "outputs": [],
      "stateMutability": "nonpayable",
      "type": "function"
    }
  ],
  "bytecode": "0x608060405234801561001057600080fd5b506114f2806100206000396000f3fe608060405234801561001057600080fd5b50600436106100725760003560e01c80638374d7d5116100505780638374d7d5146100e15780638780ed0d146100fd5780639bde1a021461011b57610072565b80630d80fefd1461007757806349819eba146100a957806360bde833146100c5575b600080fd5b610091600480360381019061008c91906109c9565b61014b565b6040516100a093929190610a9f565b60405180910390f35b6100c360048036038101906100be9190610c19565b610295565b005b6100df60048036038101906100da9190610c91565b61031e565b005b6100fb60048036038101906100f69190610c91565b61036a565b005b6101056103b6565b6040516101129190610e4c565b60405180910390f35b61013560048036038101906101309190610c91565b6106fb565b6040516101429190610ec5565b60405180910390f35b6000818154811061015b57600080fd5b906000526020600020906003020160009150905080600001805461017e90610f16565b80601f01602080910402602001604051908101604052809291908181526020018280546101aa90610f16565b80156101f75780601f106101cc576101008083540402835291602001916101f7565b820191906000526020600020905b8154815290600101906020018083116101da57829003601f168201915b50505050509080600101549080600201805461021290610f16565b80601f016020809104026020016040519081016040528092919081815260200182805461023e90610f16565b801561028b5780601f106102605761010080835404028352916020019161028b565b820191906000526020600020905b81548152906001019060200180831161026e57829003601f168201915b5050505050905083565b6000604051806060016040528084815260200160008152602001838152509050600081908060018154018082558091505060019003906000526020600020906003020160009091909190915060008201518160000190816102f691906110f3565b5060208201518160010155604082015181600201908161031691906110f3565b505050505050565b600061032982610873565b90506000818154811061033f5761033e6111c5565b5b9060005260206000209060030201600101600081548092919061036190611223565b91905055505050565b600061037582610873565b90506000818154811061038b5761038a6111c5565b5b906000526020600020906003020160010160008154809291906103ad9061126b565b91905055505050565b606060008080549050905060008167ffffffffffffffff8111156103dd576103dc610aee565b5b60405190808252806020026020018201604052801561041657816020015b61040361095e565b8152602001906001900390816103fb5790505b50905060005b828110156105b05760008181548110610438576104376111c5565b5b906000526020600020906003020160405180606001604052908160008201805461046190610f16565b80601f016020809104026020016040519081016040528092919081815260200182805461048d90610f16565b80156104da5780601f106104af576101008083540402835291602001916104da565b820191906000526020600020905b8154815290600101906020018083116104bd57829003601f168201915b50505050508152602001600182015481526020016002820180546104fd90610f16565b80601f016020809104026020016040519081016040528092919081815260200182805461052990610f16565b80156105765780601f1061054b57610100808354040283529160200191610576565b820191906000526020600020905b81548152906001019060200180831161055957829003601f168201915b505050505081525050828281518110610592576105916111c5565b5b602002602001018190525080806105a8906112b3565b91505061041c565b5060005b6001836105c191906112fb565b8110156106f25760005b600182856105d991906112fb565b6105e391906112fb565b8110156106de57826001826105f8919061132f565b81518110610609576106086111c5565b5b602002602001015160200151838281518110610628576106276111c5565b5b60200260200101516020015112156106cb57600083828151811061064f5761064e6111c5565b5b6020026020010151905083600183610667919061132f565b81518110610678576106776111c5565b5b6020026020010151848381518110610693576106926111c5565b5b602002602001018190525080846001846106ad919061132f565b815181106106be576106bd6111c5565b5b6020026020010181905250505b80806106d6906112b3565b9150506105cb565b5080806106ea906112b3565b9150506105b4565b50809250505090565b61070361095e565b600061070e83610873565b905060008181548110610724576107236111c5565b5b906000526020600020906003020160405180606001604052908160008201805461074d90610f16565b80601f016020809104026020016040519081016040528092919081815260200182805461077990610f16565b80156107c65780601f1061079b576101008083540402835291602001916107c6565b820191906000526020600020905b8154815290600101906020018083116107a957829003601f168201915b50505050508152602001600182015481526020016002820180546107e990610f16565b80601f016020809104026020016040519081016040528092919081815260200182805461081590610f16565b80156108625780601f1061083757610100808354040283529160200191610862565b820191906000526020600020905b81548152906001019060200180831161084557829003601f168201915b505050505081525050915050919050565b60008082604051602001610887919061139f565b60405160208183030381529060405280519060200120905060005b60008054905081101561091d5781600082815481106108c4576108c36111c5565b5b90600052602060002090600302016002016040516020016108e59190611439565b604051602081830303815290604052805190602001200361090a578092505050610959565b8080610915906112b3565b9150506108a2565b506040517f08c379a00000000000000000000000000000000000000000000000000000000081526004016109509061149c565b60405180910390fd5b919050565b60405180606001604052806060815260200160008152602001606081525090565b6000604051905090565b600080fd5b600080fd5b6000819050919050565b6109a681610993565b81146109b157600080fd5b50565b6000813590506109c38161099d565b92915050565b6000602082840312156109df576109de610989565b5b60006109ed848285016109b4565b91505092915050565b600081519050919050565b600082825260208201905092915050565b60005b83811015610a30578082015181840152602081019050610a15565b60008484015250505050565b6000601f19601f8301169050919050565b6000610a58826109f6565b610a628185610a01565b9350610a72818560208601610a12565b610a7b81610a3c565b840191505092915050565b6000819050919050565b610a9981610a86565b82525050565b60006060820190508181036000830152610ab98186610a4d565b9050610ac86020830185610a90565b8181036040830152610ada8184610a4d565b9050949350505050565b600080fd5b600080fd5b7f4e487b7100000000000000000000000000000000000000000000000000000000600052604160045260246000fd5b610b2682610a3c565b810181811067ffffffffffffffff82111715610b4557610b44610aee565b5b80604052505050565b6000610b5861097f565b9050610b648282610b1d565b919050565b600067ffffffffffffffff821115610b8457610b83610aee565b5b610b8d82610a3c565b9050602081019050919050565b82818337600083830152505050565b6000610bbc610bb784610b69565b610b4e565b905082815260208101848484011115610bd857610bd7610ae9565b5b610be3848285610b9a565b509392505050565b600082601f830112610c0057610bff610ae4565b5b8135610c10848260208601610ba9565b91505092915050565b60008060408385031215610c3057610c2f610989565b5b600083013567ffffffffffffffff811115610c4e57610c4d61098e565b5b610c5a85828601610beb565b925050602083013567ffffffffffffffff811115610c7b57610c7a61098e565b5b610c8785828601610beb565b9150509250929050565b600060208284031215610ca757610ca6610989565b5b600082013567ffffffffffffffff811115610cc557610cc461098e565b5b610cd184828501610beb565b91505092915050565b600081519050919050565b600082825260208201905092915050565b6000819050602082019050919050565b600082825260208201905092915050565b6000610d22826109f6565b610d2c8185610d06565b9350610d3c818560208601610a12565b610d4581610a3c565b840191505092915050565b610d5981610a86565b82525050565b60006060830160008301518482036000860152610d7c8282610d17565b9150506020830151610d916020860182610d50565b5060408301518482036040860152610da98282610d17565b9150508091505092915050565b6000610dc28383610d5f565b905092915050565b6000602082019050919050565b6000610de282610cda565b610dec8185610ce5565b935083602082028501610dfe85610cf6565b8060005b85811015610e3a5784840389528151610e1b8582610db6565b9450610e2683610dca565b925060208a01995050600181019050610e02565b50829750879550505050505092915050565b60006020820190508181036000830152610e668184610dd7565b905092915050565b60006060830160008301518482036000860152610e8b8282610d17565b9150506020830151610ea06020860182610d50565b5060408301518482036040860152610eb88282610d17565b9150508091505092915050565b60006020820190508181036000830152610edf8184610e6e565b905092915050565b7f4e487b7100000000000000000000000000000000000000000000000000000000600052602260045260246000fd5b60006002820490506001821680610f2e57607f821691505b602082108103610f4157610f40610ee7565b5b50919050565b60008190508160005260206000209050919050565b60006020601f8301049050919050565b600082821b905092915050565b600060088302610fa97fffffffffffffffffffffffffffffffffffffffffffffffffffffffffffffffff82610f6c565b610fb38683610f6c565b95508019841693508086168417925050509392505050565b6000819050919050565b6000610ff0610feb610fe684610993565b610fcb565b610993565b9050919050565b6000819050919050565b61100a83610fd5565b61101e61101682610ff7565b848454610f79565b825550505050565b600090565b611033611026565b61103e818484611001565b505050565b5b818110156110625761105760008261102b565b600181019050611044565b5050565b601f8211156110a75761107881610f47565b61108184610f5c565b81016020851015611090578190505b6110a461109c85610f5c565b830182611043565b50505b505050565b600082821c905092915050565b60006110ca600019846008026110ac565b1980831691505092915050565b60006110e383836110b9565b9150826002028217905092915050565b6110fc826109f6565b67ffffffffffffffff81111561111557611114610aee565b5b61111f8254610f16565b61112a828285611066565b600060209050601f83116001811461115d576000841561114b578287015190505b61115585826110d7565b8655506111bd565b601f19841661116b86610f47565b60005b828110156111935784890151825560018201915060208501945060208101905061116e565b868310156111b057848901516111ac601f8916826110b9565b8355505b6001600288020188555050505b505050505050565b7f4e487b7100000000000000000000000000000000000000000000000000000000600052603260045260246000fd5b7f4e487b7100000000000000000000000000000000000000000000000000000000600052601160045260246000fd5b600061122e82610a86565b91507f7fffffffffffffffffffffffffffffffffffffffffffffffffffffffffffffff82036112605761125f6111f4565b5b600182019050919050565b600061127682610a86565b91507f800000000000000000000000000000000000000000000000000000000000000082036112a8576112a76111f4565b5b600182039050919050565b60006112be82610993565b91507fffffffffffffffffffffffffffffffffffffffffffffffffffffffffffffffff82036112f0576112ef6111f4565b5b600182019050919050565b600061130682610993565b915061131183610993565b9250828203905081811115611329576113286111f4565b5b92915050565b600061133a82610993565b915061134583610993565b925082820190508082111561135d5761135c6111f4565b5b92915050565b600081905092915050565b6000611379826109f6565b6113838185611363565b9350611393818560208601610a12565b80840191505092915050565b60006113ab828461136e565b915081905092915050565b600081546113c381610f16565b6113cd8186611363565b945060018216600081146113e857600181146113fd57611430565b60ff1983168652811515820286019350611430565b61140685610f47565b60005b8381101561142857815481890152600182019150602081019050611409565b838801955050505b50505092915050565b600061144582846113b6565b915081905092915050565b7f4d657373616765206e6f7420666f756e64000000000000000000000000000000600082015250565b6000611486601183610a01565b915061149182611450565b602082019050919050565b600060208201905081810360008301526114b581611479565b905091905056fea26469706673582212208c24b7eb05b972bd916578db01185c46eef02e22503be2d351abfff810c4bf8564736f6c63430008120033",
  "linkReferences": {},
  "deployedLinkReferences": {}
}