{
  "_format": "hh-sol-artifact-1",
  "contractName": "MessageVoting",
  "sourceName": "src/MessageVoting.sol",
  "abi": [
    {
      "inputs": [
        {
          "internalType": "bytes32",
          "name": "_messageId",
          "type": "bytes32"
        },
        {
          "internalType": "int256",
          "name": "_voteCount",
          "type": "int256"
        }
      ],
      "name": "downvote",
      "outputs": [],
      "stateMutability": "nonpayable",
      "type": "function"
    },
    {
      "inputs": [
        {
          "internalType": "bytes32",
          "name": "_messageId",
          "type": "bytes32"
        }
      ],
      "name": "getMessageById",
      "outputs": [
        {
          "internalType": "int256",
          "name": "",
          "type": "int256"
        }
      ],
      "stateMutability": "view",
      "type": "function"
    },
    {
      "inputs": [
        {
          "internalType": "bytes32",
          "name": "_messageId",
          "type": "bytes32"
        },
        {
          "internalType": "int256",
          "name": "_voteCount",
          "type": "int256"
        }
      ],
      "name": "upvote",
      "outputs": [],
      "stateMutability": "nonpayable",
      "type": "function"
    },
    {
      "inputs": [
        {
          "internalType": "bytes32",
          "name": "",
          "type": "bytes32"
        }
      ],
      "name": "voteCount",
      "outputs": [
        {
          "internalType": "int256",
          "name": "",
          "type": "int256"
        }
      ],
      "stateMutability": "view",
      "type": "function"
    }
  ],
  "bytecode": "0x608060405234801561001057600080fd5b5061036b806100206000396000f3fe608060405234801561001057600080fd5b506004361061004c5760003560e01c80638ddb54ad14610051578063c8e5168114610081578063e2be60f81461009d578063f28bddf6146100b9575b600080fd5b61006b600480360381019061006691906101b2565b6100e9565b60405161007891906101f8565b60405180910390f35b61009b6004803603810190610096919061023f565b610105565b005b6100b760048036038101906100b2919061023f565b610132565b005b6100d360048036038101906100ce91906101b2565b61015f565b6040516100e091906101f8565b60405180910390f35b6000806000838152602001908152602001600020549050919050565b80600080848152602001908152602001600020600082825461012791906102ae565b925050819055505050565b80600080848152602001908152602001600020600082825461015491906102f2565b925050819055505050565b60006020528060005260406000206000915090505481565b600080fd5b6000819050919050565b61018f8161017c565b811461019a57600080fd5b50565b6000813590506101ac81610186565b92915050565b6000602082840312156101c8576101c7610177565b5b60006101d68482850161019d565b91505092915050565b6000819050919050565b6101f2816101df565b82525050565b600060208201905061020d60008301846101e9565b92915050565b61021c816101df565b811461022757600080fd5b50565b60008135905061023981610213565b92915050565b6000806040838503121561025657610255610177565b5b60006102648582860161019d565b92505060206102758582860161022a565b9150509250929050565b7f4e487b7100000000000000000000000000000000000000000000000000000000600052601160045260246000fd5b60006102b9826101df565b91506102c4836101df565b9250828201905082811215600083121683821260008412151617156102ec576102eb61027f565b5b92915050565b60006102fd826101df565b9150610308836101df565b925082820390508181126000841216828213600085121516171561032f5761032e61027f565b5b9291505056fea26469706673582212209918245b7911cba22263ef075efc753e22e1e9386d0f914500215f541917393064736f6c63430008120033",
  "linkReferences": {},
  "deployedLinkReferences": {}
}